{
  "_format": "hh-sol-artifact-1",
  "contractName": "CoffeePortal",
  "sourceName": "contracts/CoffeePortal.sol",
  "abi": [
    {
      "inputs": [],
      "stateMutability": "payable",
      "type": "constructor"
    },
    {
      "anonymous": false,
      "inputs": [
        {
          "indexed": true,
          "internalType": "address",
          "name": "from",
          "type": "address"
        },
        {
          "indexed": false,
          "internalType": "uint256",
          "name": "timestamp",
          "type": "uint256"
        },
        {
          "indexed": false,
          "internalType": "string",
          "name": "message",
          "type": "string"
        },
        {
          "indexed": false,
          "internalType": "string",
          "name": "name",
          "type": "string"
        }
      ],
      "name": "NewCoffee",
      "type": "event"
    },
    {
      "inputs": [
        {
          "internalType": "string",
          "name": "_message",
          "type": "string"
        },
        {
          "internalType": "string",
          "name": "_name",
          "type": "string"
        },
        {
          "internalType": "uint256",
          "name": "_payAmount",
          "type": "uint256"
        }
      ],
      "name": "buyCoffee",
      "outputs": [],
      "stateMutability": "payable",
      "type": "function"
    },
    {
      "inputs": [],
      "name": "getAllCoffee",
      "outputs": [
        {
          "components": [
            {
              "internalType": "address",
              "name": "giver",
              "type": "address"
            },
            {
              "internalType": "string",
              "name": "message",
              "type": "string"
            },
            {
              "internalType": "string",
              "name": "name",
              "type": "string"
            },
            {
              "internalType": "uint256",
              "name": "timestamp",
              "type": "uint256"
            }
          ],
          "internalType": "struct CoffeePortal.Coffee[]",
          "name": "",
          "type": "tuple[]"
        }
      ],
      "stateMutability": "view",
      "type": "function"
    },
    {
      "inputs": [],
      "name": "getTotalCoffee",
      "outputs": [
        {
          "internalType": "uint256",
          "name": "",
          "type": "uint256"
        }
      ],
      "stateMutability": "view",
      "type": "function"
    },
    {
      "inputs": [],
      "name": "owner",
      "outputs": [
        {
          "internalType": "address payable",
          "name": "",
          "type": "address"
        }
      ],
      "stateMutability": "view",
      "type": "function"
    }
  ],
  "bytecode": "0x60806040526200004f6040518060400160405280601881526020017f596f212048656c6c6f20536d61727420436f6e747261637400000000000000008152506200009660201b620005941760201c565b33600160006101000a81548173ffffffffffffffffffffffffffffffffffffffff021916908373ffffffffffffffffffffffffffffffffffffffff1602179055506200022a565b6200013681604051602401620000ad9190620001a3565b6040516020818303038152906040527f41304fac000000000000000000000000000000000000000000000000000000007bffffffffffffffffffffffffffffffffffffffffffffffffffffffff19166020820180517bffffffffffffffffffffffffffffffffffffffffffffffffffffffff83818316178352505050506200013960201b60201c565b50565b60008151905060006a636f6e736f6c652e6c6f679050602083016000808483855afa5050505050565b60006200016f82620001c7565b6200017b8185620001d2565b93506200018d818560208601620001e3565b620001988162000219565b840191505092915050565b60006020820190508181036000830152620001bf818462000162565b905092915050565b600081519050919050565b600082825260208201905092915050565b60005b8381101562000203578082015181840152602081019050620001e6565b8381111562000213576000848401525b50505050565b6000601f19601f8301169050919050565b610f43806200023a6000396000f3fe60806040526004361061003f5760003560e01c8063441315c5146100445780634839ee3f146100605780638da5cb5b1461008b578063d386beca146100b6575b600080fd5b61005e60048036038101906100599190610812565b6100e1565b005b34801561006c57600080fd5b5061007561035d565b6040516100829190610b7f565b60405180910390f35b34801561009757600080fd5b506100a061038b565b6040516100ad9190610ab0565b60405180910390f35b3480156100c257600080fd5b506100cb6103b1565b6040516100d89190610acb565b60405180910390f35b6000662386f26fc10000905080821115610130576040517f08c379a000000000000000000000000000000000000000000000000000000000815260040161012790610b3f565b60405180910390fd5b60008081548092919061014290610d99565b9190505550600260405180608001604052803373ffffffffffffffffffffffffffffffffffffffff16815260200186815260200185815260200142815250908060018154018082558091505060019003906000526020600020906004020160009091909190915060008201518160000160006101000a81548173ffffffffffffffffffffffffffffffffffffffff021916908373ffffffffffffffffffffffffffffffffffffffff160217905550602082015181600101908051906020019061020c9291906106f2565b5060408201518160020190805190602001906102299291906106f2565b506060820151816003015550506000600160009054906101000a900473ffffffffffffffffffffffffffffffffffffffff1673ffffffffffffffffffffffffffffffffffffffff168360405161027e90610a9b565b60006040518083038185875af1925050503d80600081146102bb576040519150601f19603f3d011682016040523d82523d6000602084013e6102c0565b606091505b5050905080610304576040517f08c379a00000000000000000000000000000000000000000000000000000000081526004016102fb90610b5f565b60405180910390fd5b3373ffffffffffffffffffffffffffffffffffffffff167f5d202edb9ac9aca913189e3c829f7fdbba23859e91379c70ecf7874fe39632a742878760405161034e93929190610b9a565b60405180910390a25050505050565b6000610383604051806060016040528060218152602001610eed6021913960005461062d565b600054905090565b600160009054906101000a900473ffffffffffffffffffffffffffffffffffffffff1681565b60606002805480602002602001604051908101604052809291908181526020016000905b8282101561058b57838290600052602060002090600402016040518060800160405290816000820160009054906101000a900473ffffffffffffffffffffffffffffffffffffffff1673ffffffffffffffffffffffffffffffffffffffff1673ffffffffffffffffffffffffffffffffffffffff16815260200160018201805461045e90610d36565b80601f016020809104026020016040519081016040528092919081815260200182805461048a90610d36565b80156104d75780601f106104ac576101008083540402835291602001916104d7565b820191906000526020600020905b8154815290600101906020018083116104ba57829003601f168201915b505050505081526020016002820180546104f090610d36565b80601f016020809104026020016040519081016040528092919081815260200182805461051c90610d36565b80156105695780601f1061053e57610100808354040283529160200191610569565b820191906000526020600020905b81548152906001019060200180831161054c57829003601f168201915b50505050508152602001600382015481525050815260200190600101906103d5565b50505050905090565b61062a816040516024016105a89190610aed565b6040516020818303038152906040527f41304fac000000000000000000000000000000000000000000000000000000007bffffffffffffffffffffffffffffffffffffffffffffffffffffffff19166020820180517bffffffffffffffffffffffffffffffffffffffffffffffffffffffff83818316178352505050506106c9565b50565b6106c58282604051602401610643929190610b0f565b6040516020818303038152906040527f9710a9d0000000000000000000000000000000000000000000000000000000007bffffffffffffffffffffffffffffffffffffffffffffffffffffffff19166020820180517bffffffffffffffffffffffffffffffffffffffffffffffffffffffff83818316178352505050506106c9565b5050565b60008151905060006a636f6e736f6c652e6c6f679050602083016000808483855afa5050505050565b8280546106fe90610d36565b90600052602060002090601f0160209004810192826107205760008555610767565b82601f1061073957805160ff1916838001178555610767565b82800160010185558215610767579182015b8281111561076657825182559160200191906001019061074b565b5b5090506107749190610778565b5090565b5b80821115610791576000816000905550600101610779565b5090565b60006107a86107a384610c04565b610bdf565b9050828152602081018484840111156107c057600080fd5b6107cb848285610cf4565b509392505050565b600082601f8301126107e457600080fd5b81356107f4848260208601610795565b91505092915050565b60008135905061080c81610ed5565b92915050565b60008060006060848603121561082757600080fd5b600084013567ffffffffffffffff81111561084157600080fd5b61084d868287016107d3565b935050602084013567ffffffffffffffff81111561086a57600080fd5b610876868287016107d3565b9250506040610887868287016107fd565b9150509250925092565b600061089d8383610a13565b905092915050565b6108ae81610cb8565b82525050565b6108bd81610ca6565b82525050565b60006108ce82610c45565b6108d88185610c68565b9350836020820285016108ea85610c35565b8060005b8581101561092657848403895281516109078582610891565b945061091283610c5b565b925060208a019950506001810190506108ee565b50829750879550505050505092915050565b600061094382610c50565b61094d8185610c84565b935061095d818560208601610d03565b61096681610e6f565b840191505092915050565b600061097c82610c50565b6109868185610c95565b9350610996818560208601610d03565b61099f81610e6f565b840191505092915050565b60006109b7601b83610c95565b91506109c282610e80565b602082019050919050565b60006109da601483610c95565b91506109e582610ea9565b602082019050919050565b60006109fd600083610c79565b9150610a0882610ed2565b600082019050919050565b6000608083016000830151610a2b60008601826108b4565b5060208301518482036020860152610a438282610938565b91505060408301518482036040860152610a5d8282610938565b9150506060830151610a726060860182610a7d565b508091505092915050565b610a8681610cea565b82525050565b610a9581610cea565b82525050565b6000610aa6826109f0565b9150819050919050565b6000602082019050610ac560008301846108a5565b92915050565b60006020820190508181036000830152610ae581846108c3565b905092915050565b60006020820190508181036000830152610b078184610971565b905092915050565b60006040820190508181036000830152610b298185610971565b9050610b386020830184610a8c565b9392505050565b60006020820190508181036000830152610b58816109aa565b9050919050565b60006020820190508181036000830152610b78816109cd565b9050919050565b6000602082019050610b946000830184610a8c565b92915050565b6000606082019050610baf6000830186610a8c565b8181036020830152610bc18185610971565b90508181036040830152610bd58184610971565b9050949350505050565b6000610be9610bfa565b9050610bf58282610d68565b919050565b6000604051905090565b600067ffffffffffffffff821115610c1f57610c1e610e40565b5b610c2882610e6f565b9050602081019050919050565b6000819050602082019050919050565b600081519050919050565b600081519050919050565b6000602082019050919050565b600082825260208201905092915050565b600081905092915050565b600082825260208201905092915050565b600082825260208201905092915050565b6000610cb182610cca565b9050919050565b6000610cc382610cca565b9050919050565b600073ffffffffffffffffffffffffffffffffffffffff82169050919050565b6000819050919050565b82818337600083830152505050565b60005b83811015610d21578082015181840152602081019050610d06565b83811115610d30576000848401525b50505050565b60006002820490506001821680610d4e57607f821691505b60208210811415610d6257610d61610e11565b5b50919050565b610d7182610e6f565b810181811067ffffffffffffffff82111715610d9057610d8f610e40565b5b80604052505050565b6000610da482610cea565b91507fffffffffffffffffffffffffffffffffffffffffffffffffffffffffffffffff821415610dd757610dd6610de2565b5b600182019050919050565b7f4e487b7100000000000000000000000000000000000000000000000000000000600052601160045260246000fd5b7f4e487b7100000000000000000000000000000000000000000000000000000000600052602260045260246000fd5b7f4e487b7100000000000000000000000000000000000000000000000000000000600052604160045260246000fd5b6000601f19601f8301169050919050565b7f496e73756666696369656e742045746865722070726f76696465640000000000600082015250565b7f4661696c656420746f2073656e64206d6f6e6579000000000000000000000000600082015250565b50565b610ede81610cea565b8114610ee957600080fd5b5056fe57652068616420746f74616c20256420636f666665657320726563656976656421a26469706673582212208753c90c88e5a6ee975f5b06a68a9b605dfcfe59b4d98ebe4b0c15dd00fe2da264736f6c63430008040033",
  "linkReferences": {},
  "deployedLinkReferences": {}
}